:100000000C9434000C9451000C9451000C94510049
:100010000C9451000C9451000C9451000C9451001C
:100020000C9451000C9451000C9451000C9451000C
:100030000C9451000C9451000C9451000C945100FC
:100040000C9451000C9451000C9435010C946301F4
:100050000C9451000C9451000C9451000C945100DC
:100060000C9451000C94510011241FBECFEFD8E026
:10007000DEBFCDBF21E0A4E0B1E001C01D92A934F4
:10008000B207E1F711E0A0E0B1E0E0E0F7E002C084
:1000900005900D92A430B107D9F70E9458020C9434
:1000A0007E030C940000299A85E08A95F1F7000000
:1000B00029980895CF93C82F662311F0289A01C07C
:1000C0002898549A559A569A579A5F985E985D98D0
:1000D0005C98C7FD5F9AC6FD5E9AC5FD5D9AC4FD3A
:1000E0005C9A0E9453005F985E985D985C98C3FD8F
:1000F0005F9AC2FD5E9AC1FD5D9AC0FD5C9A0E9446
:1001000053005C9A5D9A5E9A5F9A8FE39FE1019734
:10011000F1F700C00000CF91089528985D9A549897
:10012000559856985798299A85E08A95F1F70000D6
:100130004C9B02C080E101C080E04D9980624E99E5
:1001400080644F998068299895E09A95F1F70000AE
:10015000299A95E09A95F1F700004C9981604D99A4
:1001600082604E9984604F9988602998089560E074
:100170000C945A0061E00C945A00611102C080583E
:1001800001C080540C94B7000E948D0087FDFCCF05
:1001900085E18A95F1F700000E948D0090E00895B6
:1001A00081E00C94B70082E00C94B70061E00C94FD
:1001B0005A00CF93DF93EC018991882319F00E94B4
:1001C000D600FACFDF91CF910895CF93DF93FC0152
:1001D0008491EF012196882321F00E94D600FE0130
:1001E000F7CFDF91CF910895CF93C82F209A559ADA
:1001F000219A549A559A569A579A8FEF99EF0197E8
:10020000F1F700C000005D9A5C9A0E9453008FE1F4
:100210009EE40197F1F700C000000E9453008FEFA9
:1002200090E00197F1F700C000000E9453008FEFAB
:1002300090E00197F1F700C000005C980E94530025
:100240008FEF90E00197F1F700C0000088E20E9474
:10025000B70088E00E94B7000E94D00086E00E94AC
:10026000B7008C2FCF910C94B7001F920F920FB64E
:100270000F9211242F938F939F93EF93FF9380916D
:10028000C0009091C6008C71E0910601EF5FEF71A4
:1002900020910501E21739F0E0930601F0E0E75FF5
:1002A000FE4F908301C082E090910401892B8093DE
:1002B0000401FF91EF919F918F912F910F900FBEAD
:1002C0000F901F9018951F920F920FB60F92112446
:1002D0008F939F93EF93FF93909108018091070173
:1002E000981769F0E0910701EF5FEF71E093070164
:1002F000F0E0E75DFE4F80818093C60005C08091ED
:10030000C1008F7D8093C100FF91EF919F918F91EC
:100310000F900FBE0F901F90189510920801109229
:100320000701109206011092050197FF03C022E019
:100330002093C00090789093C5008093C40088E912
:100340008093C10086E08093C200089590910601D9
:10035000809105019817A9F0909105019F5F9F7109
:10036000E92FF0E0E75FFE4F208180910401909338
:1003700005011092040190E0982F8827820F911DAB
:10038000089580E091E00895909108019F5F9F712A
:10039000209107019217E1F3E92FF0E0E75DFE4FAE
:1003A0008083909308018091C10080628093C10096
:1003B0000895CF93DF93EC018991882319F00E946F
:1003C000C401FACFDF91CF910895CF93DF93FC0161
:1003D0008491EF012196882321F00E94C401FE013F
:1003E000F7CFDF91CF91089587B18F7C87B988B11E
:1003F000806388B9E9EBF0E080818C7F808388E9B5
:100400008093B800089594EA9093BC009091BC004A
:1004100097FFFCCF8093BB0084E88093BC00809161
:10042000BC0087FFFCCF9091B900987F983119F0FC
:1004300081E0903409F480E008958093BB0084E863
:100440008093BC008091BC0087FFFCCF089584ECB2
:100450008093BC008091BC0087FFFCCF8091BB00E3
:10046000089584E88093BC008091BC0087FFFCCF96
:100470008091BB00089584E98093BC0008950F9398
:100480001F9387FB00F985FB10F9012784FB10F906
:10049000012783FB10F901270095880F00FB80F9E5
:1004A0001F910F9108950F931F931F910F9108951E
:1004B0002F9A509A519A529A539A549A559A569AF8
:1004C000C7E0D0E016E302E28AE2F82E90E4E92EDB
:1004D0002FE3D22E36E7C32E1F9BFECF0E940B03C5
:1004E000BE010E9497028330910591F03CF4813067
:1004F000910561F0029789F4CBB80FC08530910562
:1005000059F044F0069749F4EBB807C0DBB805C0D2
:100510001BB903C0FBB801C00BB92FEF89E698E106
:10052000215080409040E1F700C00000D5CF97FBFC
:10053000072E16F4009407D077FD09D00E94AB0275
:1005400007FC05D03EF4909581959F4F08957095D6
:1005500061957F4F0895AA1BBB1B51E107C0AA1FDD
:10056000BB1FA617B70710F0A61BB70B881F991F54
:100570005A95A9F780959095BC01CD0108958F9269
:100580009F92AF92BF92CF92DF92EF92FF92CF9362
:10059000DF93EC01688179818A819B816115710506
:1005A0008105910521F464E279ED8BE597E02DE179
:1005B00033EF41E050E00E941B0349015A019B01C7
:1005C000AC01A7EAB1E40E943A036B017C01ACEEF6
:1005D000B4EFA50194010E944803DC01CB018C0D0E
:1005E0009D1DAE1DBF1DB7FF03C00197A109B048F7
:1005F00088839983AA83BB839F77DF91CF91FF90F4
:10060000EF90DF90CF90BF90AF909F908F90089524
:100610000E94BF02089580E091E00E94BF02089509
:10062000A0E0B0E08093000190930101A09302014B
:10063000B09303010895052E97FB1EF400940E94C9
:10064000320357FD07D00E944D0307FC03D04EF440
:100650000C94320350954095309521953F4F4F4F64
:100660005F4F089590958095709561957F4F8F4F5E
:100670009F4F08950E946F03A59F900DB49F900D0A
:10068000A49F800D911D11240895B7FF0C943A0387
:100690000E943A03821B930B0895A1E21A2EAA1B13
:1006A000BB1BFD010DC0AA1FBB1FEE1FFF1FA21722
:1006B000B307E407F50720F0A21BB30BE40BF50B1F
:1006C000661F771F881F991F1A9469F760957095A8
:1006D000809590959B01AC01BD01CF010895A29F2B
:1006E000B001B39FC001A39F700D811D1124911D06
:1006F000B29F700D811D1124911D0895F894FFCFB4
:0407000001000000F4
:00000001FF
